:020000040800F2
:1000000000C0002079100008DD0E0008DF0E000897
:10001000E10E0008E30E0008E50E000800000000F5
:10002000000000000000000000000000E70E0008D3
:10003000E90E000800000000EB0E0008ED0E0008BD
:10004000C1100008C1100008C1100008C11000084C
:10005000C1100008C1100008F50E0008FF0E0008CE
:10006000C1100008C1100008C1100008C11000082C
:10007000C1100008C1100008C1100008C11000081C
:10008000C1100008C1100008C1100008C11000080C
:10009000C1100008C1100008C1100008C1100008FC
:1000A000C1100008C1100008C1100008C1100008EC
:1000B000C1100008C1100008C1100008C1100008DC
:1000C000C1100008C1100008C1100008C1100008CC
:1000D000C1100008C1100008C1100008C1100008BC
:1000E000C1100008C1100008C1100008C1100008AC
:1000F000C1100008C1100008C1100008C11000089C
:10010000C1100008C1100008C1100008C11000088B
:10011000C1100008C1100008C1100008C11000087B
:10012000C1100008C1100008C1100008C11000086B
:1001300000000000000000000000000000000000BF
:1001400000000000000000000000000000000000AF
:10015000000000000000000000000000000000009F
:10016000000000000000000000000000000000008F
:10017000000000000000000000000000000000007F
:10018000000000000000000000000000000000006F
:10019000000000000000000000000000000000005F
:1001A000000000000000000000000000000000004F
:1001B000000000000000000000000000000000003F
:1001C000000000000000000000000000000000002F
:1001D000000000000000000000000000000000001F
:0401E0005FF8E0F1F3
:1001E800844641EA000313F0030349D1403A23D37C
:1001F8000B6803604B6843608B688360CB68C3609F
:100208000B6903614B6943618B698361CB69C36186
:100218000B6A03624B6A43628B6A8362CB6AC3626E
:100228000B6B03634B6B43638B6B8363CB6BC36356
:1002380040304031403ADBD230320BD30B68036098
:100248004B6843608B688360CB68C36010301031A3
:10025800103AF3D20C3205D351F8043B40F8043B72
:10026800043AF9D2043208D0D2071CBF11F8013B76
:1002780000F8013B01D30B8803806046704700BF3C
:10028800082A13D38B07B1D010F00303AED0C3F103
:100298000403D21ADB071CBF11F8013B00F8013B2D
:1002A800A4D331F8023B20F8023B9FE7043AD9D3A4
:1002B800013A11F8013B00F8013BF9D20B780370C1
:1002C8004B7843708B7883706046704781F00041AB
:1002D80002E000BF83F0004330B54FEA41044FEA23
:1002E800430594EA050F08BF90EA020F1FBF54EABE
:1002F800000C55EA020C7FEA645C7FEA655C00F05A
:10030800E2804FEA5454D4EB5555B8BF6D420CDD2A
:100318002C4480EA020281EA030382EA000083EAAD
:10032800010180EA020281EA0303362D88BF30BD4D
:1003380011F0004F4FEA01314FF4801C4CEA1131A3
:1003480002D0404261EB410113F0004F4FEA033302
:100358004CEA133302D0524263EB430394EA050F8D
:1003680000F0A780A4F10104D5F1200E0DDB02FAFC
:100378000EFC22FA05F2801841F1000103FA0EF290
:10038800801843FA05F359410EE0A5F120050EF156
:10039800200E012A03FA0EFC28BF4CF0020C43FA87
:1003A80005F3C01851EBE37101F0004507D54FF094
:1003B800000EDCF1000C7EEB00006EEB0101B1F5E4
:1003C800801F1BD3B1F5001F0CD349085FEA30002A
:1003D8004FEA3C0C04F101044FEA445212F5800F35
:1003E80080F09A80BCF1004F08BF5FEA500C50F1D2
:1003F800000041EB045141EA050130BD5FEA4C0CB5
:10040800404141EB0101013C28BFB1F5801FE9D211
:1004180091F0000F04BF01460020B1FA81F308BF34
:100428002033A3F10B03B3F120020CDA0C3208DD00
:1004380002F1140CC2F10C0201FA0CF021FA02F1DB
:100448000CE002F11402D8BFC2F1200C01FA02F14B
:1004580020FA0CFCDCBF41EA0C019040E41AA2BF70
:1004680001EB0451294330BD6FEA04041F3C1CDA38
:100478000C340EDC04F11404C4F1200220FA04F058
:1004880001FA02F340EA030021FA04F345EA030102
:1004980030BDC4F10C04C4F1200220FA02F001FAC4
:1004A80004F340EA0300294630BD21FA04F0294646
:1004B80030BD94F0000F83F4801306BF81F48011DF
:1004C8000134013D4EE77FEA645C18BF7FEA655C52
:1004D80029D094EA050F08BF90EA020F05D054EA24
:1004E800000C04BF1946104630BD91EA030F1EBF29
:1004F8000021002030BD5FEA545C05D1400049412D
:1005080028BF41F0004130BD14F580043CBF01F51F
:10051800801130BD01F0004545F0FE4141F4700105
:100528004FF0000030BD7FEA645C1ABF19461046E0
:100538007FEA655C1CBF0B46024650EA013406BFE1
:1005480052EA033591EA030F41F4002130BD00BFA0
:1005580090F0000F04BF0021704730B54FF480645D
:1005680004F132044FF000054FF0000150E700BFDE
:1005780090F0000F04BF0021704730B54FF480643D
:1005880004F1320410F0004548BF40424FF000012A
:100598003EE700BF42004FEAE2014FEA31014FEA6D
:1005A80002701FBF12F07F4393F07F4F81F06051BC
:1005B800704732F07F4208BF704793F07F4F04BF07
:1005C80041F40021704730B54FF4607401F00045E4
:1005D80021F000411CE700BF50EA010208BF704744
:1005E80030B54FF000050AE050EA010208BF704735
:1005F80030B511F0004502D5404261EB41014FF49E
:10060800806404F132045FEA915C3FF4D8AE4FF0A5
:1006180003025FEADC0C18BF03325FEADC0C18BF88
:10062800033202EBDC02C2F1200300FA03FC20FAD9
:1006380002F001FA03FE40EA0E0021FA02F1144426
:10064800BDE600BF70B54FF0FF0C4CF4E06C1CEA3F
:1006580011541DBF1CEA135594EA0C0F95EA0C0FB0
:1006680000F0DEF82C4481EA030621EA4C5123EA23
:100678004C5350EA013518BF52EA033541F4801152
:1006880043F4801338D0A0FB02CE4FF00005E1FB05
:1006980002E506F00042E0FB03E54FF00006E1FB4F
:1006A80003569CF0000F18BF4EF0010EA4F1FF0492
:1006B800B6F5007F64F5407404D25FEA4E0E6D41D2
:1006C80046EB060642EAC62141EA55514FEAC520E3
:1006D80040EA5E504FEACE2EB4F1FD0C88BFBCF55F
:1006E800E06F1ED8BEF1004F08BF5FEA500E50F110
:1006F800000041EB045170BD06F0004646EA0101D6
:1007080040EA020081EA0301B4EB5C04C2BFD4EB07
:100718000C0541EA045170BD41F480114FF0000E00
:10072800013C00F3AB8014F1360FDEBF002001F06E
:10073800004170BDC4F10004203C35DA0C341BDCE8
:1007480004F11404C4F1200500FA05F320FA04F0BA
:1007580001FA05F240EA020001F0004221F00041EE
:1007680010EBD37021FA04F642EB06015EEA430E61
:1007780008BF20EAD37070BDC4F10C04C4F1200591
:1007880000FA04F320FA05F001FA04F240EA020044
:1007980001F0004110EBD37041F100015EEA430E15
:1007A80008BF20EAD37070BDC4F1200500FA05F235
:1007B8004EEA020E20FA04F301FA05F243EA0203B4
:1007C80021FA04F001F0004121FA04F220EA0200C3
:1007D80000EBD3705EEA430E08BF20EAD37070BD09
:1007E80094F0000F0FD101F00046400041EB0101E9
:1007F80011F4801F08BF013CF7D041EA060195F0CB
:10080800000F18BF704703F00046520043EB030384
:1008180013F4801F08BF013DF7D043EA0603704771
:1008280094EA0C0F0CEA135518BF95EA0C0F0CD07C
:1008380050EA410618BF52EA4306D1D181EA0301C2
:1008480001F000414FF0000070BD50EA410606BFBC
:100858001046194652EA430619D094EA0C0F02D101
:1008680050EA013613D195EA0C0F05D152EA033646
:100878001CBF104619460AD181EA030101F0004164
:1008880041F0FE4141F470014FF0000070BD41F0AD
:10089800FE4141F4780170BD70B54FF0FF0C4CF487
:1008A800E06C1CEA11541DBF1CEA135594EA0C0FA6
:1008B80095EA0C0F00F0A7F8A4EB050481EA030EF3
:1008C80052EA03354FEA013100F088804FEA0333DA
:1008D8004FF0805545EA131343EA12634FEA0222A8
:1008E80045EA111545EA10654FEA00260EF0004169
:1008F8009D4208BF964244F1FD0404F5407402D2BB
:100908005B084FEA3202B61A65EB03055B084FEA4B
:1009180032024FF480104FF4002CB6EB020E75EB48
:10092800030E22BFB61A754640EA0C005B084FEA70
:100938003202B6EB020E75EB030E22BFB61A7546ED
:1009480040EA5C005B084FEA3202B6EB020E75EB38
:10095800030E22BFB61A754640EA9C005B084FEAB0
:100968003202B6EB020E75EB030E22BFB61A7546BD
:1009780040EADC0055EA060E18D04FEA051545EAAC
:1009880016754FEA06164FEAC30343EA52734FEA55
:10099800C2025FEA1C1CC0D111F4801F0BD141EACE
:1009A80000014FF000004FF0004CB6E711F4801F33
:1009B80004BF01430020B4F1FD0C88BFBCF5E06F13
:1009C8003FF6AFAEB5EB030C04BFB6EB020C5FEA23
:1009D800500C50F1000041EB045170BD0EF0004E78
:1009E8004EEA113114EB5C04C2BFD4EB0C0541EAAA
:1009F800045170BD41F480114FF0000E013C90E6A7
:100A080045EA060E8DE60CEA135594EA0C0F08BF6A
:100A180095EA0C0F3FF43BAF94EA0C0F0AD150EA69
:100A280001347FF434AF95EA0C0F7FF425AF1046FC
:100A380019462CE795EA0C0F06D152EA03353FF424
:100A4800FDAE1046194622E750EA410618BF52EAA1
:100A580043067FF4C5AE50EA41047FF40DAF52EA75
:100A680043057FF4EBAE12E74FF0FF3C06E000BF12
:100A78004FF0010C02E000BF4FF0010C4DF804CD1F
:100A88004FEA410C7FEA6C5C4FEA430C18BF7FEADF
:100A98006C5C1BD001B050EA410C0CBF52EA430C0D
:100AA80091EA030F02BF90EA020F0020704710F18D
:100AB800000F91EA030F58BF994208BF90422CBF1C
:100AC800D8176FEAE37040F0010070474FEA410C15
:100AD8007FEA6C5C02D150EA013C07D14FEA430C33
:100AE8007FEA6C5CD6D152EA033CD3D05DF8040BA4
:100AF800704700BF8446104662468C4619466346D6
:100B080000E000BF01B5FFF7B7FF002848BF10F1AC
:100B1800000F01BD4DF808EDFFF7F4FF0CBF0120F1
:100B280000205DF808FB00BF4DF808EDFFF7EAFF6D
:100B380034BF012000205DF808FB00BF4DF808ED28
:100B4800FFF7E0FF94BF012000205DF808FB00BF1D
:100B58004DF808EDFFF7CEFF94BF012000205DF8A7
:100B680008FB00BF4DF808EDFFF7C4FF34BF0120B4
:100B780000205DF808FB00BF4FEA410C7FEA6C5C7F
:100B880002D150EA013C0AD14FEA430C7FEA6C5C7F
:100B980002D152EA033C02D14FF0000070474FF0F7
:100BA800010070474FEA410212F5001215D211D523
:100BB8006FF47873B3EB625212D94FEAC12343F052
:100BC800004343EA505311F0004F23FA02F018BFD4
:100BD800404270474FF00000704750EA013005D19D
:100BE80011F0004008BF6FF0004070474FF0000060
:100BF800704700BF0348044B834202D0034B03B144
:100C080018477047B4090020B4090020000000000C
:100C18000548064B1B1AD90F01EBA301491002D056
:100C2800034B03B118477047B4090020B4090020EA
:100C38000000000010B5064C237843B9FFF7DAFF2F
:100C4800044B13B10448AFF300800123237010BD97
:100C5800B409002000000000A081000808B5054B79
:100C68001BB105490548AFF30080BDE80840FFF710
:100C7800CFBF00BF00000000B8090020A081000815
:100C880010B588B0002404940594069407941B4B6F
:100C98009A6942F010029A619A6902F01002019270
:100CA800019A9A6942F020029A619A6902F0200238
:100CB8000292029A9A6942F004029A619B6903F0CF
:100CC80004030393039B032304930D4B059304A987
:100CD8000C4800F0BDFA22460121062000F05EFA19
:100CE800062000F093FA22460221072000F056FA67
:100CF800072000F08BFA08B010BD00BF00100240BA
:100D0800000011100008014072B6FEE700B591B06E
:100D18002822002106A801F09FF8002301930293DE
:100D2800039304930593012206924FF480330793AB
:100D38000A9202220D920E934FF4E0130F9306A825
:100D480000F0D2FB80B90F23019302210291002306
:100D580003934FF480620492059301A800F0F6FD16
:100D680020B911B05DF804FBFFF7CEFFFFF7CCFF09
:100D780008B500F0C9F9FFF7C9FFFFF781FF00F0D8
:100D880021F9084800F014F8074801F0FFF800F0CE
:100D9800DDF80146054801F0B1F80A2000F0D8F95D
:100DA800F5E700BFDC090020B8810008DC810008F5
:100DB80008B5054B1860054B186800230222194630
:100DC800806801F0EBF808BDD00900200C00002075
:100DD800022801D80120704708B501F013F809234B
:100DE8000360002008BD000010B5013801280AD8AA
:100DF80014464FF0FF3392B20748006800F03EFFF8
:100E080040B9204610BD00F0FDFF092303604FF0F4
:100E1800FF30F7E70520F5E7D0090020022801D8C0
:100E28000020704708B500F0EDFF092303604FF07C
:100E3800FF3008BD08B500F0E5FF092303604FF057
:100E4800FF3008BD08B548B94FF0FF330122084804
:100E5800006800F072FF40B9012008BD00F0D2FF21
:100E6800092303604FF0FF30F7E70520F5E700BFDF
:100E7800D009002008B5022804D84FF400534B606D
:100E8800002008BD00F0BEFF09230360F8E700005A
:100E980082B00E4B9A6942F001029A619A6902F097
:100EA80001020092009ADA6942F08052DA61DB6945
:100EB80003F080530193019B054A536823F0E063D4
:100EC80043F00073536002B0704700BF0010024047
:100ED80000000140FEE7FEE7FEE7FEE7FEE7704799
:100EE8007047704708B500F021F908BD08B5012022
:100EF80000F0D6FA08BD08B5022000F0D1FA08BD06
:100F080008B5012802D002280DD008BD02210C48DE
:100F180000F0BEFA18B90B4A1368013B13600A4B7C
:100F280001225A61F1E70121054800F0B1FA18B928
:100F3800044A136801331360034B02225A61E4E741
:100F480000080140D409002000040140014B186842
:100F5800704700BFD40900200120704708B500F091
:100F680051FF162303604FF0FF3008BD08B54FF05E
:100F7800FF31FFF7F3FFFEE710B503460C4A0D49B2
:100F88000D48006840B10C4800680344521A934267
:100F980006D8094A136010BD0748084C0460F2E7F8
:100FA80000F030FF0C2303604FF0FF30F3E700BF81
:100FB80000C0002000040000D8090020600A0020BA
:100FC8007047000008B50A480A4B03604FF4E13344
:100FD800436000238360C36003610C224261836124
:100FE800C36100F01BFE00B908BDFFF78DFEFBE7EB
:100FF800DC0900200038014010B586B000230293B8
:101008000393049305930268174B9A4201D006B0E4
:1010180010BD03F558439A6942F480429A619A696F
:1010280002F480420092009A9A6942F004029A619E
:101038009B6903F004030193019B4FF4007302932F
:101048000223039303230593084C02A9204600F0CA
:10105800FFF84FF48063029300230393049302A9DB
:10106800204600F0F5F8D2E70038014000080140BA
:10107800FFF7A6FF0B480C490C4A002302E0D4589E
:10108800C4500433C4188C42F9D3094A094C0023CC
:1010980001E013600432A242FBD300F0B9FEFFF76F
:1010A80067FE704700000020B40900200886000889
:1010B800B4090020600A0020FEE7000010B50446CD
:1010C8000E4B1A784FF47A73B3FBF2F30C4A10689C
:1010D800B0FBF3F000F0A8F868B90F2C01D9012093
:1010E8000AE0002221464FF0FF3000F057F8054B88
:1010F8001C60002000E0012010BD00BF040000209B
:10110800000000200800002008B5074A136843F0D3
:1011180010031360032000F02FF80F20FFF7CEFF15
:10112800FFF7B6FE002008BD00200240034A116800
:10113800034B1B780B441360704700BF240A002040
:1011480004000020014B1868704700BF240A0020E3
:1011580038B50446FFF7F6FF0546B4F1FF3F02D065
:10116800044B1B781C44FFF7EDFF401BA042FAD349
:1011780038BD00BF04000020074AD36823F4E063A9
:101188001B041B0C000200F4E060034343F0BF6340
:1011980043F40033D360704700ED00E000B5194B0D
:1011A800DB68C3F30223C3F1070CBCF1040F28BFAB
:1011B8004FF0040C03F1040EBEF1060F18D9033BDF
:1011C8004FF0FF3E0EFA0CFC21EA0C0199400EFA92
:1011D80003FE22EA0E020A4300280BDB1201D2B2F8
:1011E80000F1604000F5614080F800235DF804FBE1
:1011F8000023E5E700F00F001201D2B2024B1A54A7
:10120800F4E700BF00ED00E014ED00E0002807DB84
:1012180000F01F02400901239340024A42F820309F
:10122800704700BF00E100E00138B0F1807F0BD2C9
:101238004FF0E0235861054AF02182F8231000207E
:10124800986107221A6170470120704700ED00E09D
:1012580070B582B00024A446B0E0874DAB4210D0F0
:1012680007D9864DAB420CD005F58035AB4208D086
:1012780013E0A5F58015AB4203D005F57025AB4208
:1012880007D18B68002B62D0012B5BD04261082408
:1012980003E0A5F58015AB42F3D0BEF1FF0F58D897
:1012A8000646BEF1FF0F56D84FEA8C0233680F2569
:1012B800954023EA050304FA02F2134333604B68AE
:1012C80013F0805F78D06E4B9A6942F001029A6100
:1012D8009B6903F001030193019B4FEA9C02951C53
:1012E800684B53F825600CF00305AD000F23AB40A5
:1012F80026EA0306644B984233D003F5806398428C
:1013080000F0988003F58063984200F0958003F51B
:101318008063984200F0928003F58063984200F061
:101328008F8003F58063984219D006231AE0CC68B1
:10133800B3E7CC680434B0E7CC680834ADE7CC68D0
:101348000C34AAE702610824A7E70024A5E70424CF
:10135800A3E7061DA5E7ACF108029200A6E705235E
:1013680000E00023AB4033430232464D45F82230BB
:101378004B6813F4801F65D0444A936843EA0E0310
:1013880093604B6813F4001F62D0404AD36843EA65
:101398000E03D3604B6813F4003F5FD03B4A536899
:1013A80043EA0E0353604B6813F4803F5CD0374A1E
:1013B800136843EA0E0313600CF1010C0B6833FA4F
:1013C8000CF257D0012202FA0CF203EA020E32EABA
:1013D8000303F1D14B68122B3FF63FAF122B3FF6B8
:1013E8005CAF01A555F823F08B12000837130008ED
:1013F8004113000853130008A3120008A3120008A1
:10140800A3120008A3120008A3120008A3120008E0
:10141800A3120008A3120008A3120008A3120008D0
:10142800A3120008A3120008A31200083B13000827
:1014380047130008012395E7022393E7032391E765
:1014480004238FE7114A936823EA0E03936098E711
:101458000E4AD36823EA0E03D3609BE70B4A53680E
:1014680023EA0E0353609EE7084A136823EA0E0333
:101478001360A1E702B070BD000022100000311017
:101488000010024000000140000801400004014033
:101498008368194201D0012070470020704700007E
:1014A80008B5054B5B69034200D108BD024B586182
:1014B800FFF726FDF9E700BF0004014082B0084BA2
:1014C8001B68084AA2FB03235B0A00FB03F3019392
:1014D80000BF019B5A1E0192002BF9D102B0704740
:1014E80000000020D34D6210002800F0F18170B593
:1014F80082B00446036813F0010F2CD0994B5B6847
:1015080003F00C03042B1DD0964B5B6803F00C030F
:10151800082B12D06368B3F5803F41D0002B55D11A
:1015280003F1804303F504331A6822F480321A6009
:101538001A6822F480221A6037E08A4B5B6813F439
:10154800803FE7D0874B1B6813F4003F03D06368E4
:10155800002B00F0BF81236813F0020F75D0814B78
:101568005B6813F00C0F5FD07E4B5B6803F00C03D5
:10157800082B54D02369002B00F08A807A4B012273
:101588001A60FFF7DFFD0546764B1B6813F0020F64
:1015980075D1FFF7D7FD401B0228F5D903209EE13E
:1015A800704A136843F480331360636843B3FFF7EA
:1015B800C9FD05466B4B1B6813F4003FCBD1FFF701
:1015C800C1FD401B6428F5D9032088E1B3F5A02F9D
:1015D80009D0644B1A6822F480321A601A6822F41F
:1015E80080221A60E1E703F18043A3F53C331A68CF
:1015F80042F480221A601A6842F480321A60D4E7F2
:10160800FFF7A0FD0546574B1B6813F4003FA2D017
:10161800FFF798FD401B6428F5D903205FE1514B83
:101628005B6813F4803FA5D14E4B1B6813F0020F83
:1016380003D02369012B40F04F814A4A136823F0F5
:10164800F803616943EAC1031360236813F0080FC4
:1016580033D0A369002B5CD0434B0122C3F880240C
:10166800FFF770FD05463F4B5B6A13F0020F21D16F
:10167800FFF768FD401B0228F5D903202FE1394AFE
:10168800136823F0F803616943EAC1031360DCE7D8
:10169800354B00221A60FFF755FD0546314B1B6894
:1016A80013F0020FD1D0FFF74DFD401B0228F5D9EA
:1016B800032014E10120FFF701FF236813F0040F52
:1016C80000F09680274BDB6913F0805F34D1254BFF
:1016D800DA6942F08052DA61DB6903F080530193E2
:1016E800019B0125214B1B6813F4807F26D0E368FA
:1016F800012B3DD0002B53D103F1804303F5043374
:101708001A6A22F001021A621A6A22F004021A62A4
:1017180033E0154B0022C3F88024FFF713FD05467C
:10172800104B5B6A13F0020FC7D0FFF70BFD401B8D
:101738000228F5D90320D2E00025D3E70B4A136825
:1017480043F480731360FFF7FDFC0646074B1B68E4
:1017580013F4807FCBD1FFF7F5FC801B6428F5D903
:101768000320BCE00010024000004242007000402C
:101778005F4A136A43F001031362E36833B3FFF768
:10178800E1FC06465A4B1B6A13F0020F2FD1FFF7F4
:10179800D9FC801B41F288339842F3D903209EE09C
:1017A800052B09D0524B1A6A22F001021A621A6AF2
:1017B80022F004021A62E0E74D4B1A6A42F0040272
:1017C8001A621A6A42F001021A62D6E7FFF7BAFCF7
:1017D8000646474B1B6A13F0020F08D0FFF7B2FC0E
:1017E800801B41F288339842F3D9032077E0E5B9AA
:1017F800E369002B72D03E4A526802F00C02082AB4
:1018080056D0022B17D03B4B00221A66FFF79AFCE2
:101818000446374B1B6813F0007F47D0FFF792FC54
:10182800001B0228F5D9032059E0314AD36923F077
:101838008053D361DCE72F4B00221A66FFF782FC46
:1018480005462B4B1B6813F0007F06D0FFF77AFC88
:10185800401B0228F5D9032041E0236AB3F5803FF5
:101868001AD023494B6823F47413226A606A02432E
:1018780013434B601F4B01221A66FFF763FC0446B3
:101888001B4B1B6813F0007F0ED1FFF75BFC001B9E
:101898000228F5D9032022E0154A536823F40033BF
:1018A800A1680B435360DCE7002018E0002016E035
:1018B800012B16D00E4B5B6803F48031226A9142EB
:1018C80011D103F47013626A93420ED1002006E02E
:1018D80001207047012002E0012000E0002002B052
:1018E80070BD0120FBE70120F9E70120F7E700BF01
:1018F80000100240000042420F4B5B6803F00C02EC
:10190800082A01D00D487047C3F383420C49885C0C
:1019180013F4803F0BD0084B5B68C3F34043094A7C
:10192800D35C064A02FB00F0B0FBF3F07047064BAD
:1019380003FB00F0704700BF0010024000127A005D
:10194800008200081082000800093D00002800F00D
:10195800A08070B50D460446524B1B6803F0070380
:101968008B420BD24F4A136823F007030B431360D3
:10197800136803F007038B4240F08D80236813F04F
:10198800020F17D013F0040F04D0474A536843F4EA
:10199800E0635360236813F0080F04D0424A536889
:1019A80043F460535360404A536823F0F003A1683E
:1019B8000B435360236813F0010F31D06368012B88
:1019C80020D0022B25D0384A126812F0020F64D0BA
:1019D80035494A6822F0030213434B60FFF7B2FB14
:1019E8000646314B5B6803F00C036268B3EB820F69
:1019F80016D0FFF7A7FB801B41F288339842F0D935
:101A0800032045E0284A126812F4003FE0D1012083
:101A18003EE0254A126812F0007FD9D1012037E054
:101A2800204B1B6803F00703AB420AD91D4A136811
:101A380023F007032B431360136803F00703AB423B
:101A48002DD1236813F0040F06D0174A536823F4E6
:101A5800E063E1680B435360236813F0080F07D075
:101A6800114A536823F46053216943EAC103536060
:101A7800FFF742FF0C4B5B68C3F303130B4AD35CBD
:101A8800D8400B4B18600B4B1868FFF717FB00206A
:101A980070BD012070470120FAE70120F8E7012016
:101AA800F6E700BF0020024000100240E88100086D
:101AB8000000002008000020014B1868704700BF94
:101AC8000000002008B5FFF7F7FF044B5B68C3F37D
:101AD8000223034AD35CD84008BD00BF001002406F
:101AE800F881000808B5FFF7E7FF044B5B68C3F30C
:101AF800C223034AD35CD84008BD00BF001002408F
:101B0800F881000810B504460268136923F44053AD
:101B1800C1680B43136183680269134342691A431E
:101B28000168CB6823F4B05323F00C031343CB6054
:101B38000268536923F4407381690B435361026857
:101B4800134B9A4220D0FFF7BDFF024602EB8202F8
:101B580002EB820263689B00B2FBF3F20D48A0FB24
:101B680002314909642303FB11231B013233A0FB13
:101B780003035B0903F0F00202EB011203F00F0309
:101B8800216813448B6010BDFFF7ACFF0246DDE708
:101B9800003801401F85EB512DE9F84305460F46F3
:101BA80016469946DDF820802B681C6837EA04043D
:101BB8000CBF01240024B4422DD1B8F1FF3FF3D06B
:101BC800B8F1000F05D0FFF7BDFAA0EB09004045BA
:101BD800EAD92A6802F10C0353E8003F23F4D073D2
:101BE8000C3242E800310029F3D12A6802F11403CB
:101BF80053E8003F23F00103143242E80031002982
:101C0800F3D1202385F8413085F84230002385F848
:101C18004030032000E00020BDE8F88360B310B531
:101C2800044690F8413013B3242384F841302268E5
:101C3800D36823F40053D3602046FFF763FF22687C
:101C4800136923F4904313612268536923F02A032C
:101C580053612268D36843F40053D3600020606462
:101C6800202384F8413084F84230606310BD80F846
:101C78004030FFF7C1F9D7E7012070472DE9F0415F
:101C880082B01E4690F84130DBB2202B4BD104467F
:101C98000D46904600294AD00AB9012044E00023A5
:101CA8004364212380F84130FFF74CFA0746A4F833
:101CB8002480A4F82680A368B3F5805F02D04FF093
:101CC80000080FE02369FBB14FF000080AE038F87C
:101CD800023B2268C3F308035360E28C92B2013AD4
:101CE80092B2E284E38C9BB28BB100963B46002211
:101CF80080212046FFF750FFD8B9002DE7D015F80E
:101D0800012B23685A60E8E7A8460025EAE7009611
:101D18003B46002240212046FFF73EFF58B92023CA
:101D280084F8413000E0022002B0BDE8F0810120D3
:101D3800FAE70320F8E70320F6E72DE9F04182B03F
:101D48001E4690F84230DBB2202B53D104460D4694
:101D58009046002952D00AB901204CE00023436480
:101D6800222280F842200363FFF7ECF90746A4F823
:101D78002C80A4F82E80A368B3F5805F02D04FF0C2
:101D8800000817E0236913B14FF0000812E0A846D5
:101D980000250FE023685B68C3F3080328F8023BBB
:101DA80003E023685B682B700135E28D92B2013A3B
:101DB80092B2E285E38D9BB2BBB100963B4600220E
:101DC80020212046FFF7E8FED0B9002DE2D0A36815
:101DD800B3F5805FE5D013B92369002BE1D0236800
:101DE8005B6803F07F032B70DEE7202384F8423022
:101DF800002000E0022002B0BDE8F0810120FAE7EF
:101E08000320F8E7014B1868704700BF0C0000205A
:101E180070B50D4E0D4D761BB61006D0002455F842
:101E2800043B01349847A642F9D1094E094D06F002
:101E3800B3F9761BB61006D0002455F8043B0134DC
:101E48009847A642F9D170BD0086000800860008B0
:101E58000486000800860008830730B548D0541E61
:101E6800002A3FD00346CAB201E0013C3AD303F846
:101E7800012B9D07F9D1032C2DD9CDB245EA0525B3
:101E88000F2C45EA054536D9A4F1100222F00F0CB3
:101E980003F1200EE6444FEA121C03F1100242E956
:101EA800045542E9025510327245F8D10CF101028D
:101EB80014F00C0F03EB021204F00F0C13D0ACF16A
:101EC800040323F003030433134442F8045B9342EE
:101ED800FBD10CF003042CB1C9B21C4403F8011B5C
:101EE8009C42FBD130BD64461346002CF4D1F9E77F
:101EF80003461446BFE71A46A446E0E70FB400B508
:101F0800074A83B004AB106853F8042B8168019327
:101F180000F02AF903B05DF804EB04B0704700BF85
:101F28000C00002030B5044689B008460D4600F084
:101F3800EDF801210223144A04950692A26B04AD20
:101F48000590084401950791A56802930390B2B1E2
:101F5800B5F90C309A0406D46A6E43F4005322F49F
:101F68000052AB816A662946204601AA03F030FA7E
:101F7800002814BF4FF0FF300A2009B030BD2046BA
:101F880003F0CCF8E4E700BF14820008024B0146D6
:101F98001868FFF7C7BF00BF0C0000202DE9F04309
:101FA800594C0E46D4F80080174604461D4683B0A7
:101FB800B8F1000F03D0D8F83830002B66D0022FC4
:101FC80005D0012F00F28D80002DC0F28A802146B5
:101FD800404603F01DF8216B41B104F140039942DA
:101FE80002D0404603F0F4F8002323630023B4F939
:101FF8000CC0A3611CF0800F636050D12CF44A6CB4
:102008002CF0030C022FA4F80CC056D001AB2146CB
:1020180040466A4603F0EEFBA3891843A08115B336
:1020280016B3D8F838306BB3009BC4E90465AB42EB
:10203800B4F90C3026601CBF43F40063A381012F60
:1020480004BF43F00103A38198B213F0080321D021
:1020580010F0010041D0002318466D42A561A3602D
:1020680003B0BDE8F083009D284603F0F3FB064665
:10207800002839D0A38943F08003A381D8F83830E9
:10208800002BD1D1404603F049F8CDE7404603F094
:1020980045F894E71846A36003B0BDE8F0834046CE
:1020A800216903F095F8B4F90CC0022F2CF44A6C9E
:1020B8002CF0030CA4F80CC0A8D1002000210122A8
:1020C80004F143034CF0020CA4F80CC02360236114
:1020D800A160626103B0BDE8F083A56003B0BDE80C
:1020E800F0834FF0FF30D7E7DDF80090A94504D022
:1020F800484603F0AFFB064620B94FF0FF30B4F96D
:102108000CC0DBE74D46B5E70C00002020F00301CA
:1021180010F00300C0F1000051F8043B00F1040C7A
:102128004FEACC0C6FF000021CBF22FA0CF21343EA
:102138004FF0010C4CEA0C2C4CEA0C4CA3EB0C02B3
:1021480022EA030212EACC1204BF51F8043B04301D
:10215800F4D0C2F1000102EA0102B2FA82F2C2F13D
:102168001F0200EBD20070472DE9F04FD9B090461E
:102178001C460891824603F0C3FA03680D9418467A
:102188001793FFF7C3FF03460822002128A81693D8
:10219800FFF762FEBAF1000F04D0DAF83830002BEE
:1021A80000F0F8810899B1F90C20900493B207D493
:1021B80042F400528A8193B24A6E22F400524A666F
:1021C8001A0740F1CA80089A1269002A00F0C580EF
:1021D80003F01A030A2B00F0CE8000232FAA194619
:1021E8009146CDE92D332C921293002200234446C8
:1021F800CDE91423CDE91911CDE91B1118910991E5
:10220800A0467F4B28AED3F8E45003F07DFA42464F
:10221800034624A950460096A847002800F0C1802C
:10222800C0F2B780249B252B01D08044E9E7B8EBA6
:102238000407064640F0B98000224FF0FF332B26F2
:1022480020279346079308F1010898F800308DF885
:1022580087200B9208F10108A3F120025A2A00F204
:10226800D180DFE812F0DB02CF00CF00CD02CF0033
:10227800CF00CF00AC02CF00CF006A001D02CF0014
:102288001802EA02CF00E5025B005B005B005B001E
:102298005B005B005B005B005B00CF00CF00CF0002
:1022A800CF00CF00CF00CF005101CF009B01040326
:1022B800510151015101CF00CF00CF00CF00A7023B
:1022C800CF00CF002202CF00CF00CF00BE01CF0049
:1022D8009502CF00CF00E006CF00CF00CF00CF009F
:1022E800CF00CF00CF00CF005101CF009B01EF01FD
:1022F8005101510151015202EF017500CF007702DF
:10230800CF005F02DD0684027500CF00BE017200B7
:10231800B706CF00CF00BB06CF0072000021A3F1A3
:10232800300218F8013B01EB810102EB4101A3F1F6
:102338003002092AF5D90B918EE70D9B53F8042B2F
:10234800002A0B920D93C0F2A38198F8003081E720
:1023580098F800304BF0200B7CE75046089901F0C4
:1023680069FD002841F0F483089B9B8903F01A0358
:102378000A2B7FF432AF089BB3F90E30002BFFF61F
:102388002CAF234642465046089901F0EBFC0990D1
:1023980027E00822002128A8FFF75EFD01208044DD
:1023A8002FE7B8EB0407064611D02E9BC9E9004772
:1023B8003B442E932D9B0133072B2D9315DC09F1FC
:1023C8000809099B3B440993002E7FF435AF2E9BE7
:1023D800002B41F0BC81089BB3F90C30590601F180
:1023E800B783099859B0BDE8F08F504608992CAAD0
:1023F80004F05AFC0028EED10DF1BC09E1E700BF5A
:10240800380400200F93002BE1D000228DF8FC3017
:1024180001233FAC06938DF887200A930C9207920C
:102428001192139210921BF0020302D00699023106
:1024380006911BF084010E9105D10B9906980F1A8D
:10244800002F00F39C832E9E82B10122C9F804203C
:102458002D9A013601320DF18701072A2E962D9209
:10246800C9F8001000F3D88309F108097BB10223E9
:10247800C9F804302D9B0236013322AA072B2E9669
:102488002D93C9F8002000F3DB8309F108090E9B9E
:10249800802B00F09C82079B0A9A9F1A002F00F35A
:1024A800D7821BF4807F40F039820A9BC9F800402C
:1024B8001E44C9F804302D9B2E960133072B2D930B
:1024C80000F3528309F108091BF0040F05D00B9B98
:1024D800069A9C1A002C00F3BF83099B0B9A069955
:1024E8008A42ACBF9B185B180993002E40F0E58226
:1024F80000232D930C9B1BB150460C9902F068FEEB
:1025080044460DF1BC097BE60F930D9B073323F07E
:102518000701F1E80223CDE91423DDE9142323F0B0
:102528000045164610460D914FF0FF322946B74B2D
:10253800FEF722FB002840F0F184304629464FF090
:10254800FF32B24BFEF7FAFA002840F0E784DDE9E3
:10255800140100220023FEF7E7FA002841F000806A
:102568009DF8872000210320A94CAA4B2BF0800B53
:102578000C9106900F9D0791472DC8BF1C460A90E5
:10258800119113911091002A3FF44DAF069B01332E
:10259800069348E7504602F0C1FD03E6432B0F932C
:1025A80003D01BF0100F00F042850D9E0822002179
:1025B8002AA83FACFFF750FC2AAB2146504656F8F4
:1025C800042B01F005FC034601330A9001F0F88260
:1025D8000A9B0D9623EAE373069300228DF8872061
:1025E8001CE70F9300230D9F8DF8873057F8044B95
:1025F800002C00F041850F9B532B00F046861BF002
:102608001003109340F04186079B5A1C01F08C8000
:102618001A462046109903F0E7FB0C90002801F0B9
:10262800508373220C9B10991B1B0A9323EAE373B4
:102638000F920D979DF8872007910693119113919A
:102648000C91A0E71BF0200F0F9300F017810D9B52
:10265800073323F007031846596850F8083B0A4621
:102668000D900029C0F21C840799013100F0C58241
:1026780053EA02012BF0800540F0C082079A002A35
:1026880040F0C182AB46002358AC07930A931CE183
:102698000B9B5B420B9398F800304BF0040BD9E589
:1026A80098F800308DF88760D4E50F934BF0100B45
:1026B8001BF0200200F0E7830D9B073323F007038C
:1026C80019465A6851F8083B0D9100202BF4806593
:1026D8000021079C8DF88710671C00F0DF8053EA03
:1026E800020125F0800B40F0D880002C40F01386C2
:1026F8000028C8D115F001030A9300F0DF833023C6
:102708000DF25F148DF85F31DFE098F80030682B28
:1027180003BF98F801304BF4007B08F101084BF037
:10272800400B97E51BF0200F40F0E8831BF0100FDB
:1027380040F0F6851BF0400F40F02D871BF4007F1A
:1027480000F0EE850D9B099953F8042B444611704F
:102758000D9355E598F800306C2B03BF98F80130BD
:102768004BF0200B08F101084BF0100B72E547F60F
:10277800300378210D9AADF888300F9152F8043B58
:1027880025490D92022000224BF0020518919FE77F
:102798000F934BF0100515F0200200F066830D9B97
:1027A8000120073323F0070319465A6851F8083BFC
:1027B8000D918DE798F800304BF0080B4AE550462C
:1027C80002F09EFF436818461B93FFF79FFC0346E1
:1027D80050461D461C9302F093FF83681993002D01
:1027E8003FF4B3AD199B002B3FF4AFAD199B1B7899
:1027F800002B3FF4AAAD98F800304BF4806B29E524
:1028080098F800304BF0010B24E500BFFFFFEF7F85
:10281800188200081C820008288200089DF887306A
:10282800002B7FF492AD98F800308DF8877011E591
:1028380098F800304BF0800B0CE5414611F8013B4D
:102848002A2B01F05B82A3F13002092A884698BF3F
:10285800002101F2EC8018F8013B01EB810102EB49
:102868004101A3F13002092AF5D90791F4E44BF0AC
:10287800100B1BF0200F0F937FF4E9AE1BF0100F25
:102888000D9A40F02B831BF0400F00F0238332F9A0
:10289800043B0D92DA171146E3E65D46012800F085
:1028A800AD81022858AC1ED1189803F00F01415C85
:1028B8001B0943EA0273120904F8011D53EA0201D5
:1028C800F3D1AB4658AB1B1B0A93079A0A9900230E
:1028D8008A42B8BF0A460C93069211939DF8872046
:1028E800139310934FE603F00701DB0843EA4273A2
:1028F800D208303153EA0206204604F8011DF2D10D
:10290800EE07DED53029DCD03023023804F8013C4C
:1029180058AB1B1AAB4604460A93D6E70F9B652BA8
:1029280040F3DC80DDE9140100220023FEF7F2F811
:10293800002800F0C9810123C9F804302D9BBD4A45
:1029480001330136072B2E962D93C9F8002000F38A
:102958008F8409F10809239B129A934280F2A98275
:10296800169B179A1E44C9E900232D9B2E96013306
:10297800072B2D9300F3748309F10809129B5C1E41
:10298800002C7FF7A1AD102C41F3AE813246102701
:102998002D9BA94D089E05E009F10809103C102C53
:1029A80040F3AC8401331032072BC9E90057CDE955
:1029B8002D32F1DD314650462CAA04F075F9002875
:1029C80040F08380DDE92D320DF1BC09E6E70B9B71
:1029D800069A9F1A002F7FF75EAD102F2D9B964DFC
:1029E80023DD32462646089C04E0103F102F09F1EB
:1029F800080918DD102101331032072BCDE92D32DB
:102A0800C9F80050C9F80410EFDD214650462CAA39
:102A180004F04AF9002858D1DDE92D32103F102F73
:102A28000DF1BC09E6DC3446164601333E44072B5B
:102A3800CDE92D36C9F80050C9F8047000F30383B6
:102A4800079B0A9A09F108099F1A002F7FF729ADF9
:102A5800102F2D9B784D22DD32462646089C04E037
:102A6800103F102F09F1080917DD1021013310322A
:102A7800072BCDE92D32C9F80050C9F80410EFDD55
:102A8800214650462CAA04F00FF9F0B9DDE92D32A1
:102A9800103F102F0DF1BC09E7DC34461646013310
:102AA8003E44072BCDE92D36C9F80050C9F804700B
:102AB80000F3CE8109F10809F3E4504608992CAADD
:102AC80004F0F2F800283FF413AD0C9B002B3FF400
:102AD80082AC50460C9902F07BFB7CE4129B012BE4
:102AE80040F36F8101232D9F01361F44072FC9F83A
:102AF8000040C9F804302E962D9700F30F8309F192
:102B08000809169B0137179A1E44072FC9E90023A5
:102B1800CDE92D7600F3F58209F108090022DDE9F7
:102B280014010023FDF7F6FF002840F06881129B8E
:102B38000137013B01341E44072FC9F800402D9787
:102B4800C9F804302E9600F34D8109F108091A9B43
:102B580001371E44C9F80430072F26ABCDE92D767E
:102B6800C9F800307FF7AEAC504608992CAA04F09B
:102B78009BF80028A9D12E9E0DF1BC09A4E4102FC2
:102B880040F35087DDE92D2148461026C1462B4DDC
:102B9800D0461D93A246089C04E0103F102F00F178
:102BA800080015DD01321031072AC0E90056CDE9C9
:102BB8002D21F2DD214640462CAA04F075F80028A4
:102BC80040F05483DDE92D21103F102F2FA8E9DCB8
:102BD8005446C246C84681461D9B01327E18072AC4
:102BE800CDE92D26C9F80050C9F8047000F3068312
:102BF8009DF8872009F1080926E45D460A2B72F141
:102C0800000180F0A08230338DF85F310123AB469C
:102C18000A930DF25F1458E6504608992CAA1D93A2
:102C280004F042F800287FF450AF2E9E1D9B0DF152
:102C3800BC091BE4588200086C8200085C8200080A
:102C4800504608992CAA04F02FF800287FF43DAFCD
:102C58002E9E0DF1BC091AE4102C40F37E87102734
:102C68002D9BAC4DDDF820B004E0103C102C09F190
:102C7800080916DD01331036072BC9E90057CDE9DD
:102C88002D36F2DD594650462CAA04F00DF80028DE
:102C98007FF41BAFDDE92D36103C102C0DF1BC097B
:102CA800E8DC01332644072BC9E90054CDE92D3669
:102CB8007FF713AC504608992CAA03F0F5FF0028BB
:102CC8007FF403AF2E9E08E42399002940F3A782DE
:102CD800109D129B9D42A8BF1D46002D0BDD2D9B0C
:102CE8002E440133072BC9E900452E962D9300F396
:102CF800458609F10809109F002DA8BF7F1B002FEA
:102D080000F3CB81109B1BF4806F23440A9340F09F
:102D18004C83239B129A934203DB1BF0010F00F0B4
:102D28003084169A17991644C9E900122D9A2E96DE
:102D38000132072A2D9200F3678609F10809129AD1
:102D4800A518D41A0A9BED1AA542A8BF2546002D3E
:102D58000DDDC9F800302D9B2E440133072BC9F82F
:102D680004502E962D9300F3A98609F10809002D29
:102D7800A8BF641B002C7FF7A7AB102C40F3B487C7
:102D8800324610272D9B644D089E05E009F108097D
:102D9800103C102C40F3B28201331032072BC9E9E2
:102DA8000057CDE92D32F1DD314650462CAA03F00B
:102DB8007BFF00287FF489AEDDE92D320DF1BC09D7
:102DC800E6E71BF0010F7FF48DAE01232D9F01363E
:102DD8001F44072FC9F80040C9F804302E962D97D4
:102DE8007FF7B3AE504608992CAA03F05DFF002880
:102DF8007FF46BAEDDE92D760DF1BC09A7E6129BD9
:102E08005C1E002C7FF7A3AE102C40F3748732466B
:102E18001023414D089E05E009F10809103C102CCB
:102E280040F3A68201371032072FC9E90053CDE9D4
:102E38002D72F1DD314650462CAA03F035FF0028EB
:102E48007FF443AEDDE92D7210230DF1BC09E5E7EF
:102E5800504608992CAA03F027FF00287FF435AEC6
:102E68002E9E0DF1BC09FFF71CBB15F010030D9940
:102E78002AD115F0400023D01A4651F8043B01200E
:102E88000D919BB224E41BF010030D9931D11BF076
:102E980040002AD01A4651F8043B0D919BB214E425
:102EA8005B425D464FF02D014FF0010062EB42029C
:102EB8000FE41BF0010F3FF407AB51E558AC04E5F4
:102EC80015F4007240F0848351F8043B01200D9101
:102ED800FFF7FEBB1BF4007F40F06D8352F8043B04
:102EE8000D92DA171146FFF7BCBB1BF4007240F0D5
:102EF8005B8351F8043B0D91FFF7E7BB0D9B0998E5
:102F080053F8041BC2174446C1E900020D93FFF7AA
:102F180077B900BF5C8200086C820008DDE9140103
:102F280002460B46FDF728FE002840F07A860F9BE4
:102F3800612B00F03085412B00F0D085079B0133D1
:102F480000F027840F9B23F02003472B069304D11E
:102F5800079B002B08BF01230793DDE914010A46EC
:102F6800002A4BF48073CDF838B0C0F2FA859B463E
:102F7800002317461D930A900C930F9B413B252B6A
:102F880000F22E83DFE813F014042C032C032C0327
:102F98000D0411042C032C032C032C032C032C03E9
:102FA8002C032C032C032C032C032C032C032C03A1
:102FB8002C032C032C032C032C032C032C032C0391
:102FC8002C032C032C032C032C032C032C032C0381
:102FD8000D0411045D460F93FFF7DDBB0F93B44B4F
:102FE80018931BF020027FD00D9B073323F00703B3
:102FF80019465A6851F8083B0D911BF0010F0AD089
:1030080053EA020107D00F994BF0020B8DF8891093
:1030180030218DF8881002202BF48065FFF758BB0B
:103028000F93FFF745BB0F93A24B1893D9E70121E4
:103038000D9B069153F8042B3FAC8DF8FC200D93A3
:103048000A91FFF7CABA504608992CAA03F02CFE39
:1030580000287FF43AAD2E9E0DF1BC09FFF71BBA8C
:10306800504608992CAA03F01FFE00287FF42DADC6
:103078002E9E0DF1BC0981E4079B2146062B28BF33
:103088000623224607940C9406938B4C0D970A93BB
:10309800119113911091FFF776BA102F2D9B874D40
:1030A80040F3758132462646089C05E009F1080977
:1030B800103F102F40F36981102101331032072B84
:1030C800CDE92D32C9F80050C9F80410EEDD2146CB
:1030D80050462CAA03F0E8FD00287FF4F6ACDDE9A1
:1030E8002D320DF1BC09E3E71BF010030D9926D131
:1030F8001BF040001FD01A4651F8043B0D919BB2BB
:103108007BE7504608992CAA03F0CEFD00287FF4EF
:10311800DCACDDE92D760DF1BC09FFE450460899D9
:103128002CAA03F0C1FD00287FF4CFACDDE92D7691
:103138000DF1BC09E5E41BF4007240F0438251F83C
:10314800043B0D9159E7CDF830904FF0000EDFF8B1
:1031580070B1DDF864900DF5B07C05F48066CDF8AB
:1031680018800A9506E00A2B72F1000237D33B4615
:103178002A46A446991841F10001ABFB010525F048
:10318800030000EB95004FF0CC35091A581A05FBDF
:1031980000F562F10008A0FB0B700BFB0855054415
:1031A800052007F00108A8FB000840187F08303008
:1031B80047EAC5770EF1010E0CF1FF340CF8010C4B
:1031C8006D08002ECFD099F800108E45CBD1BEF1F6
:1031D800FF0FC8D00A2B72F1000280F078810A9D97
:1031E80058AB1B1BCDF86490AB46DDF81880DDF8B2
:1031F8003090CDF848E00A93FFF767BB504608992E
:103208002CAA1D9303F050FD00287FF45EAC9DF8B6
:1032180087202E9E1D9B0DF1BC09FFF715B90123D0
:10322800C9F804302D9B274A01330136072B2E9607
:103238002D93C9F8002000F3818309F108090029BA
:1032480077D1129A0BF0010313433FF43DA9169B63
:1032580017999A19C9E900132D9B2E920133072B50
:103268002D9300F37B8209F1080973E0C2462CE430
:10327800504608992CAA03F017FD00287FF425ACC6
:103288002E9E0DF1BC09FFF766BB2AAE082200216D
:1032980030462594FEF7E0FD079B581C00F0268178
:1032A8000025CDF81880CDF828B0A8469B4619E02F
:1032B800288200083C820008508200086C820008BE
:1032C800CDCCCCCC588200083FA93346504600F0FC
:1032D8007FFD411C404400F07384584507DC00F032
:1032E800B6848046259B5A590435002AECD1DDF86E
:1032F80028B0CDF82880DDF8188004E1164601339F
:103308002644072BC9F80050C9F80440CDE92D36EA
:103318007FF7D8A828E401285D467FF4C2AA72E4A2
:103328000D9B099953F8042B444611600D93FEF741
:1033380067BF169B17989A19C9E900032D9B2E920F
:103348000133072B2D9300F3098209F1080900299D
:10335800C0F2CA83129901338E18072BCDE92D3696
:10336800C9F80040C9F804107FF7ACA8FFF7FCBB08
:10337800164601372644072FCDE92D76C9F80050A7
:10338800C9F804407FF7E1AB2CE534461646013313
:103398003E44072BCDE92D36C9F80050C9F8047012
:1033A80000F3EA8109F10809ACE4129B4A46DDF80A
:1033B8004C90E3180A9D0793CDF83880CDF828B0D3
:1033C8003146199FDDF870B0DDF82080119B0F940D
:1033D800B9F1000F2DD07BBB013F09F1FF391B9BD1
:1033E8005944C2E9003B2D9B2E910133072B2D93A5
:1033F80056DC0832079B38785B1B8342A8BF03461C
:10340800002B1E460ADD2D98194401300728C2E911
:1034180000532E912D904EDC38780832002EB4BF20
:103428000446841B002C0BDC0544119BB9F1000FEA
:10343800D1D1002B00F03082119B013B1193CEE7D4
:10344800102C40F34E8410262D9804E0103C102CCC
:1034580002F1080216DD0130B14B10310728C2E92C
:103468000036CDE92D01F1DD414650462CAA03F086
:103478001BFC00287FF429ABDDE92D01103C102C42
:103488002FAAE8DC0130A64B21440728CDE92D01FD
:103498005460136000F36582387808320544C4E745
:1034A800414650462CAA03F0FFFB00287FF40DABE1
:1034B8002E992FAA9EE7414650462CAA03F0F4FB0A
:1034C80000287FF402AB38782E992FAAA6E71C9B18
:1034D8001B99E41A1A46204603F076FB99F8013046
:1034E8000BB109F101094FF0000E40E600235046E8
:1034F8001946009625AA00F091FC034601330A906C
:1035080000F05E8325940A9B7BB3632B40F3E8822B
:103518005046591C02F0A6F90446002800F05083D2
:103528000C90082200213046FEF796FC0A9D2146A1
:103538002B465046009625AA00F070FC854240F0C4
:10354800028400230A9A0D9722EAE271A3549DF897
:10355800872006910793119313931093FFF713B8DD
:103568002D228DF88720FEF7FDBF0A9B9DF8872046
:10357800CDE906330D971193139310930C93FFF72E
:1035880002B8129A0A99A5186D1AD41AA542A8BFAA
:103598002546FFF7ECBB0D9B099953F8042B4446CD
:1035A80011800D93FEF72CBE51F8043B02460D9195
:1035B800DBB2FFF78AB812F9043B0D92DA1711460D
:1035C800FFF74FB851F8043B02460D91DBB214E502
:1035D80051F8043B02460D910120DBB2FFF778B8A1
:1035E8000223079E2AA9049125A9039123A90093E0
:1035F80050463B460A9A0196029100F019FD069B37
:103608000446472B00F0A781462B00EB060505D1A1
:103618000378302B00F04883239E35443946002236
:1036280000230A98FDF776FA002800F05A812B4605
:103638001B1B1293069B472B00F03E81069B462BD3
:1036480000F0F981239B1093109B069A013B412AB5
:10365800239300F0788200219DF83C20002B8DF800
:103668009820B6BF2D222B22109B8DF89920B8BF29
:10367800C3F10103092B40F394820DF1AF063246E2
:10368800284F1D46104687FB0312D917C1EBA2012C
:1036980001EB8102A3EB42023032632D00F8012CCA
:1036A8000B4600F1FF32ECDC3033D9B2831E9E4268
:1036B80002F8011C40F21C8313460DF19A0201E046
:1036C80013F8011B9E4202F8011BF9D10DF1B10359
:1036D8000DF19A021B1A134426AA9B1A1A93129BDD
:1036E8001A9A012B1A440A9240F396820A9B169A58
:1036F80013440A930E9B0A9A23F4806343F4807B55
:10370800002322EAE27211930692139310931D9BF1
:10371800002B40F0DF809DF887200793FEF733BF2A
:103728006C8200086766666620460D97FEF7EEFC19
:103738007322109B0F920793119313930C9320EA13
:10374800E0739DF887200A900693FEF71CBF504649
:1037580008992CAA03F0A8FAFEF73DBE504608992E
:103768002CAA03F0A1FA00287FF4AFA9DDE92D32D5
:1037780023990DF1BC09EAE5504608992CAA03F0F3
:1037880093FA00287FF4A1A92E9E0DF1BC09FFF73A
:10379800B9BA062307930F9B23F020030693FFF77C
:1037A800DCBB079A0223561C1CE70323079E19E774
:1037B800394623AA0A9803F089F900224FF07F536B
:1037C800FCF740FF0022002306460F46FDF7A2F94A
:1037D80008B101232393AE4B0A93079BCDE912B995
:1037E800013BCDF8408025469846CDE91EA4DDF87A
:1037F80028B006E00022002308F1FF38FDF78AF917
:10380800E8B90022A34B30463946FCF71BFF0F46A8
:103818000646FDF7C7F90446FCF7AAFE0B46024622
:1038280039463046FCF756FD1BF80430B8F1FF3F27
:10383800A946C24606460F4605F8013BDAD10022E2
:1038480030463946944BDDF84080CDF84490CDF8A9
:1038580040A0DDE912B91294DDE91EA4FDF782F952
:10386800002840F082813046394600228A4BFDF715
:1038780051F918B1129BDB0700F17781109B002BDF
:1038880007DB3022109B01332B4405F8012BAB4298
:10389800FBD12B1B1293CDE60F9C129BDDF828B0B1
:1038A800E3189D4228BF1D4691460E46DDF8388034
:1038B80019970A95FFF72DBA239BDF1C109302DB9B
:1038C800079A934219DD0F9B023B0F9323F02003C5
:1038D8000693B9E62D2200238DF887200793FEF77B
:1038E80055BE2A9BAB42BFF4A3AE30215A1C2A9284
:1038F80019702A9B9D42F9D89AE6109B129A934216
:10390800C0F214810E9B13F0010F109B00F0C381CD
:10391800169A13440A930E9B5D0540F19F81109BF4
:10392800002B4FF067030F9300F399800A9B23EA5B
:10393800E3730693002311931393E8E6504608991E
:103948002CAA03F0B1F900287FF4BFA823992E9E72
:103958000DF1BC0973E40E9BDB0700F1F2802A9B92
:1039680066E6414650462CAA03F09EF900287FF4EB
:10397800ACA838782E992FAA054456E550460899E0
:103988002CAA03F091F900287FF49FA82E9E0DF130
:10399800BC09FFF7B0B978238DF8893030238DF84A
:1039A80088304BF002030E93079B632B00F32B81A7
:1039B80000233FAC0C93DDE914121346002B4BF4A3
:1039C800817B6FDB1F4600231D930F9B0A9123F019
:1039D800200306930F9B612B7FF4CFAA394623AAB5
:1039E8000A9803F073F800224FF07F53FCF72AFE81
:1039F8000022002306460F46FDF78CF808B1012384
:103A08002393264B0A93E8E6504608992CAA03F01C
:103A18004BF900287FF459A8239B2E9E0DF1BC0971
:103A2800FFF78DB91E4DDDE92D21FFF7D6B800222D
:103A38000792FEF711BC239A0E9B002A109203F0FE
:103A4800010340F3678107990B4340F02681109BDF
:103A58000A9366230F930E9B5A057FF567AF199952
:103A68000B78FF2B00F06B810025109A284604E0A4
:103A780001300131FF2B00F0F480934280F2F18095
:103A8800D21A4B78002BF3D10B780135F2E700BF3F
:103A98003C820008000030400000E03F2882000817
:103AA8005C8200080F9B23F0200306932D21DDE99B
:103AB80014231D910A9203F100478BE75046089999
:103AC8002CAA03F0F1F800287EF4FFAF239C129B88
:103AD8002E9E0DF1BC091C1BFFF749B958235BE763
:103AE80000233FAC0C931CE54F42103180F2258136
:103AF80049461026A146974D089C03E00831103F1F
:103B0800102F65DD01331032072BC1E90056CDE9CE
:103B18002D32F3DD214650462CAA03F0C5F80028C3
:103B28007EF4D3AFDDE92D322FA9E8E7129B169A70
:103B38009A18109B0A92002B40F3A38067230F93D7
:103B480089E7A5196AE50F9A01210F32D2B285E5F6
:103B58004FF0FF330993FEF744BC2D9B7E4DFFF7D2
:103B6800A0B89B4600230C93A0E7119B0A9A2A93BE
:103B7800D17B15F8013C2A468B4209D1302002F846
:103B8800010C2A9A531E2A9312F8013C9942F6D046
:103B9800392B0BBF0A9B01339B7ADBB202F8013C3D
:103BA80077E6002940F09A8030228DF89A200DF1AE
:103BB8009B02303302F8013B26ABD31A1A938EE5E9
:103BC800089AB2F90C3043F040039381FEF706BC23
:103BD8004C46894601333A44072BCDE92D32C9F8C2
:103BE8000050C9F804707FF73EAB504608992CAADC
:103BF80003F05AF800287EF468AFDDE92D320DF1A4
:103C0800BC09FFF7A7BB5046591C01F02BFE044620
:103C18000028D5D00C90CEE60E9BDE077FF56AAD66
:103C280064E5159B0320002BB8BF2D224FF000033D
:103C3800A8BF9DF8872019460C93484C484BB8BF3D
:103C48008DF887202BF0800B0690FEF793BC079B1E
:103C5800DDF828B0DDF818800A9354E467230F9341
:103C680064E61092199113901195119A139B1C995F
:103C780013440A9A01FB03230A9323EAE373069386
:103C880045E5C3F101031A4467230F9322EAE2735F
:103C98000A9206934EE60A933DE6169BD5186623CC
:103CA80029440A910F93D6E63946002200230A9840
:103CB800FCF730FF00287FF4AFACC6F1010623966D
:103CC800ABE47322079B0F920D979DF8872006930C
:103CD8000A93079011901390FEF755BC0DF19A02C4
:103CE80067E72D98FFF7CEBB2D9B1A4DFFF707BB53
:103CF80002231A93F3E4174DFFF73BBB0D9A98F88C
:103D08000130884652F8041B0D9241EAE17207928D
:103D1800FEF7A0BA079A134305D10123662206933A
:103D28000F920A9306E6169B5D1C66232A440F939E
:103D380022EAE2730A920693FCE5064D4AE700235D
:103D48001193139391E7089A938943F04003938161
:103D5800FEF7BBBE6C8200085C8200082082000867
:103D68002482000870B50024ADF58D6D4FF4806590
:103D780006940C4602950595A5891AA925F0020511
:103D8800ADF80C50656E00911995E5890491ADF870
:103D98000E50E56969460795656A06460995FEF776
:103DA800E3F9051E07DB6946304601F031F90028C2
:103DB80018BF4FF0FF35BDF80C305B0603D5A3895B
:103DC80043F04003A38128460DF58D6D70BD00BFFB
:103DD80070B5054684B05BB11C4669B10E4B2846E8
:103DE800D3F8E0602346B047431C0FD004B070BD41
:103DF80000F58A740029F1D1074823460A46D0F80D
:103E0800E06001A92846B047431CEFD100228A236D
:103E180022602B6004B070BD3804002010B51C4629
:103E280082B0049B009401934FF0FF3303F060FFCE
:103E380002B010BD38B5334B05461B680C460BB1B4
:103E48009A6B12B3B4F90C3018079AB225D52169C8
:103E580000292DD012F0010007D000256069A56067
:103E68004042A06139B1002038BD950758BF60694C
:103E7800A0600029F7D1120658BF0846F4D543F0D0
:103E880040034FF0FF30A38138BD184601F046F9D2
:103E9800B4F90C3018079AB2D9D4D1062AD55207EA
:103EA80014D4216943F00803A3819AB20029D1D11F
:103EB80002F42070B0F5007FCCD02146284601F0EE
:103EC80029FCB4F90C3021699AB2C3E7216B51B1CE
:103ED80004F14002914204D0284601F079F9B4F97E
:103EE8000C30002222630022216923F02403C4E954
:103EF8000012D7E7092243F040032A604FF0FF3051
:103F0800A38138BD0C0000202DE9F04F03690C692E
:103F180085B0A342C0F28880013C01F11405A300DA
:103F280000F11408019355F8243058F8242001337F
:103F38008A469A4208EB84018146B2FBF3F605EB08
:103F48008407029139D30021AE4640460A46A3466B
:103F580003955EF8045B0468ABB206FB03132D0CF3
:103F6800190C06FB05119BB2D31A1FFA84FC8AB2FE
:103F78006344C2EB144202EB23429BB243EA02437E
:103F8800774540F8043B4FEA11414FEA2242E0D21C
:103F9800019B5C4658F80330039D73B9029B043BB0
:103FA800984504D307E0984504F1FF3403D253F849
:103FB8000429002AF7D0C9F810405146484602F0B3
:103FC8005BFA00282CDB41460023013655F8040B28
:103FD800D1F800C082B29A1A1FFA8CFE030C724400
:103FE800C3EB1C4303EB224392B242EA0342AF42C3
:103FF80041F8042B4FEA2343E8D258F8242008EB71
:1040080084036AB9043B984504D307E0984504F152
:10401800FF3403D253F80429002AF7D0C9F8104016
:10402800304605B0BDE8F08F002005B0BDE8F08F40
:104038002DE9F04F90469946016C99B00446CDE9B8
:104048000489259D41B10123426C93408B604A60ED
:1040580001F0BAFF00232364B9F1000AB4BF0123B9
:1040680000232B60764BBCBF2AF0004ACDF814A081
:1040780033EA0A0300F0AB80DDE904231046194651
:1040880000220023CDE90A01FCF744FD074678B178
:104098000123249A1360269B002B00F0AF83694B01
:1040A800269A1360013B0393039819B0BDE8F08F7B
:1040B80016AB019317AB00932046DDE90A2302F003
:1040C800A3FA5FEA1A56054640F09780DDE91676AE
:1040D8003E4406F23243202B40F3A783C3F140034A
:1040E8000AFA03FA06F2124328FA03F04AEA000031
:1040F800FCF72EFA0123013E0F93A1F1F87100227B
:10410800514BFCF7E7F848A3D3E90023FCF79AFAE8
:1041180047A3D3E90023FCF7DFF8804630468946F9
:10412800FCF726FA44A3D3E90023FCF78BFA0246EE
:104138000B4640464946FCF7CFF880468946FCF7CF
:1041480031FD00228346002340464946FCF7ECFC3B
:10415800002840F04683BBF1160F00F23583DDE9F5
:104168000A013A4B03EBCB03D3E90023FCF7DCFC51
:10417800002871D00023BF1B0E937B1E0BF1FF3B61
:10418800069300F1288300230993BBF1000F6ADA34
:10419800099BCDF81CB0A3EB0B030993CBF10003EB
:1041A8000D93229B4FF0000B092B65D8052B40F38C
:1041B8003A830026043B2293229B023B032B00F206
:1041C8006986DFE813F051044E044504280442F2DE
:1041D8000F73249ACAF3130A5AEA080A13601AD109
:1041E800269B002B00F06586194B03930833269A0B
:1041F8000398136019B0BDE8F08FDDE90A12C2F325
:104208001303084643F07F510F97A6F2FF36169F17
:1042180041F4401173E7269B002B40F0DE830D4BE1
:10422800039341E7AFF3008061436F63A787D23FF1
:10423800B3C8608B288AC63FFB799F501344D33F8D
:104248000000F07F598200080000F83FC88300088A
:104258007C82000888820008BF1B7B1E069300F141
:1042680082840E900990069B5B44CDE9063B0023AF
:104278000D93229B092B99D9002322934FF0FF33EA
:104288000126089300230C9623930021089B616460
:104298001293204601F072FE0390002800F0028677
:1042A800039B2364089B0E2B00F21481002E00F060
:1042B80011810799002940F35884AF4B01F00F0290
:1042C80003EBC2030A46D3E900674FEA2118D10578
:1042D80040F11384DDE90A01A84B4FF0030AD3E942
:1042E8000823FCF7D9FACDE9100108F00F08B8F156
:1042F800000F13D0DFF8849218F0010F09D0D9E924
:10430800002330463946FCF79DF906460F460AF168
:10431800010A5FEA680809F10809EDD1DDE9100131
:1043280032463B46FCF7B8FA804689460E9B43B1B5
:10433800002240464946924BFCF7F6FB002840F025
:104348002D855046FCF714F942464B46FCF77AF99E
:104358008C4B0022FBF7C0FFA1F15073CDE910018F
:104368001193089B002B00F09980079B1493089BDE
:1043780013930C9B002B00F0A784139A7E4B00200C
:1043880003EBC20353E902237F49FCF785FADDE911
:104398001023FBF79FFFCDE9100149464046FCF783
:1043A80001FC0746FCF7E4F802460B46404649463E
:1043B800FBF790FF80468946DDE91001039E303700
:1043C80042464B4606F8017BFCF7CCFB002840F040
:1043D8002A85CDF854B00027DDE910AB1095139D60
:1043E80013942AE00137AF4280F22A855046594695
:1043F8000022664BFCF726F90022644B82468B4666
:1044080040464946FCF71EF989468046FCF7CAFB38
:104418000446FCF7ADF802460B4640464946FBF712
:1044280059FF303452465B4606F8014B80468946B0
:10443800FCF77AFB002840F0F48442464B46002003
:104448004F49FBF747FF52465B46FCF76DFB0028D8
:10445800C8D0DDE91343109D039A079302E0B242E6
:1044680000F0C984B14616F8013D392BF7D0013365
:10447800DBB23370079B0133079391E15046FCF799
:1044880077F842464B46FCF7DDF83E4B0022FBF737
:1044980023FFA1F15073CDE910011193404649461D
:1044A80000223B4BFBF716FFDDE9108942464B46DD
:1044B80006460F46FCF756FB8246002840F0AB84C0
:1044C80042463046394609F10043FCF72DFB0028E7
:1044D80040F04783179B002BC0F28C80079A0E2A66
:1044E80000F38880244B03EBC203D3E900AB239B82
:1044F800002B1BDA089B002B18DC40F03083504659
:104508000022234B5946FCF79DF802460B46DDE98D
:104518000A01FCF713FBDDF820A05646002800F03E
:10452800BA82239BDDF80C80DF43BCE25246DDE90A
:104538000A785B4638464146FCF7AEF9FCF732FB91
:1045480081460990FCF714F852465B46FCF77AF866
:10455800039E0B46024641463846FBF7BBFE09F16F
:10456800300306F8013B089B012B00F05E8306949C
:1045780001271C4604952AE0C8830008A083000888
:104588000000F03F00001C400000E03F0000244015
:104598000000144052465B4640464946FCF77CF909
:1045A800FCF700FB0546FBF7E3FF52465B46FCF7CA
:1045B80049F801370B46024649464046FBF78AFE52
:1045C80005F13003A74206F8013B00F02B830022D7
:1045D800A34BFCF737F80022002380468946FCF7F6
:1045E80099FA0028D6D0049D069C079BB146013352
:1045F8000793D5E00C9A002A00F00681229A012A36
:1046080040F39682089B03F1FF380D9B434580F2E7
:104618005F820D9BCDF83480A8EB03034FF00008B0
:104628009B44089B002BC0F23183069A1A440692D9
:10463800099A17461A4409920121204601F06EFD95
:10464800064667B1069900290B4608DDB942A8BF9E
:104658003B46099AFF1AD21ACB1A099206930D9B68
:1046680063B10C9B002B00F0B882B8F1000F00F387
:1046780032820D9BB3EB080240F0188301212046DB
:1046880001F04CFDBBF1000F824600F3D380229B62
:10469800012B40F3A8814FF000090120BBF1000F66
:1046A80040F0D480069B184410F01F0000F0998158
:1046B800C0F12003042B00F3AC8040F02682099B54
:1046C800002B05DD29461A46204601F05FFE054607
:1046D800069B002B05DD51461A46204601F056FE82
:1046E80082460E9B002B40F05D81089B002B40F317
:1046F80043810C9B002B40F0C480079B0133079338
:104708000127DDF80C80DDF8209007E0294600231A
:104718000A22204601F062FC054601375146284628
:10472800FFF7F2FBB94500F1300308F8013BEDDC77
:10473800089A0027002ACCBF93464FF0010B039A32
:104748009344294601222046049301F01FFE514656
:10475800054601F091FE002840F3DF811BF8013C7B
:10476800039A0BF1FF3B04E05A4500F0F1811BF876
:10477800013D392B0BF10109F6D001338BF80030DC
:104788005146204601F020FC56B12FB1B74203D064
:104798003946204601F018FC3146204601F014FC49
:1047A8002946204601F010FC0023079A89F80030BA
:1047B800249B1A60269B002B3FF476AC0398C3F821
:1047C800009019B0BDE8F08F0123BF1B0E937B1E2C
:1047D80006937FF5D8ACC7F101030993002306932C
:1047E800D3E45846FBF7C4FE42464B46FCF792F921
:1047F80000287FF4B0AC0BF1FF3BACE4194B0393FA
:10480800039819B0BDE8F08FDDF83480099F0C9E3D
:1048180017E7C0F11C00099B074403440993069B52
:10482800034406934BE70126C6E4C3F1200308FAC4
:1048380003F05DE401465A46204601F04BFD229BF9
:104848008246012B40F3BD814FF00009DAF81030A1
:104858000AEB8303186901F013FCC0F1200021E77B
:104868000000244058820008314600230A222046CE
:1048780001F0B4FB129B0646002B40F3F582CDE90C
:104888000783002F00F31D81B9F1000F40F0E78185
:10489800B046049B089903F00102039B0A921F4645
:1048A800013B1944229B089113430993514628461A
:1048B800FFF72AFB31468346284601F0DDFD4246D4
:1048C80051468146204601F0F7FDC26801460BF1CA
:1048D8003003002A43D104902846069301F0CCFD0A
:1048E800024604992046049201F06EFB049A069B46
:1048F8001AB90999002900F0A982B9F1000FC0F28C
:104908007381229949EA01090A9951EA090900F0D3
:104918006B81002A00F3BE81089A07F101099742CA
:10492800CB463B7000F0BC81294600230A22204672
:1049380001F054FB4645054631464FF000034FF061
:104948000A02204612D001F049FB414606460023E0
:104958000A22204601F042FB4F468046A6E7204641
:10496800049301F031FB0122049BC6E701F036FBFA
:104978004F460646804699E7229B022B7ADC0C9B21
:10498800002B7FF47EAF079B5146013328460793DF
:10499800FFF7BAFADDF80CB000F1300300270BF886
:1049A800013BCEE65146284601F066FD0028BFF6D9
:1049B8009CAE294600230A22204601F00FFB079BE4
:1049C800054603F1FF380C9B002B7FF44DAF129B7B
:1049D800002B40F34282089392E6B74B03930333CC
:1049E80005E41C2017E7DDE9041200297FF453AE23
:1049F800C2F31303002B7FF44EAEB04B1340002BD1
:104A080000F00D82099B4FF0010901330993069BC1
:104A18000133069341E601230C93239B079A134421
:104A280012930133012B1F46B8BF012708930021B9
:104A3800172F61647FF72DAC012204235B0003F17B
:104A48001400B842114602F10102F7D9616420E46A
:104A580001230C93239B002B5ADD1F4612930893C6
:104A6800E5E700230C93D8E700230C93F2E7129BA9
:104A7800CDE90783089B002B7FF453AD51460522EF
:104A8800204601F0ABFA82462846514601F0F4FC74
:104A980000287FF746AD3122039B079F984603F80D
:104AA800012B013703935146204601F08DFA7B1CF8
:104AB800DDF80C900793CDF80C80002E7FF46CAED7
:104AC8006EE631463A46204601F060FC0646DBE6D3
:104AD800A3EB0808A5E531464246204601F0FAFB5B
:104AE80006462A463146204601F046FB034629463B
:104AF80020461D4601F068FABBE5DDE90A234FF0C0
:104B0800020ACDE91023FFF7F2BBC0F13C0082E6B0
:104B1800012323930893FFF7B8BB03D1049BD8075D
:104B28003FF51CAED9461BF8013D302BFAD027E6DD
:104B38000F9A002A00F02E8103F23343069ADDF81B
:104B480034801A440692099A17461A44099273E562
:104B5800079B039A013307933123137010E64FF034
:104B6800000A5646DDE40E9035E600F03E81DDE9A8
:104B78000A01079A524B564206F00F0203EBC20392
:104B8800D3E90023FBF75EFD36118046894600F025
:104B9800768100234FF0020A4A4FF20706D5D7E97B
:104BA8000023FBF74FFD01230AF1010A761007F1F4
:104BB8000807F2D1002B3FF4B9AB80468946FFF7CE
:104BC800B5BB049B002B7FF43FAEDDE90412C2F3B2
:104BD8001303002B3FF411AF36E6294620460D9A01
:104BE80001F078FB054649E5002A12DD2946012235
:104BF8002046049301F0CAFB5146054601F03CFCEF
:104C08000028049B40F31681392B00F0FA800BF141
:104C18003103B946079A374601324646079209F8E2
:104C2800013BADE50995069C049D02460B46FBF742
:104C380053FB52465B4680468946FBF793FF60B9B3
:104C480052465B4640464946FBF764FF00283FF45E
:104C5800CCAC099BD9077FF5C8AC039A02E420467F
:104C6800716801F08BF90746002800F00C81336960
:104C780006F10C0102339A000C30FBF7B1FA394601
:104C88000122204601F082FB804602E6DDE9082386
:104C98009F1AD1E4392B00F0B480B9460133B9E743
:104CA800079A37460132464607924AE52946204682
:104CB80001F010FB0546E1E4888200080000F07F5F
:104CC800C8830008A0830008DDF84CA08049DDE90E
:104CD800102301EBCA0151E90201FBF7B3FCCDE94E
:104CE800100149464046FBF75DFF0646FBF740FCCE
:104CF8000B46024649464046FBF7ECFA5346039FEB
:104D08003036012B8046894607F8016B00F0B580E4
:104D1800139E039B1E4400226E4B40464946FBF7F8
:104D280091FC89468046FBF73DFF8246FBF720FC55
:104D380002460B4640464946FBF7CCFA0AF1300AD0
:104D480007F801ABBE4280468946E4D1DDE910018F
:104D58000022614BFBF7C0FA42464B46FBF7E4FEE4
:104D6800002862D1DDE9102300205B49FBF7B2FA85
:104D780042464B46FBF7F6FE00283FF4ABAB16F86D
:104D8800013CB146302B06F1FF36F8D0149B0133B5
:104D9800079305E5169BC3F13603CFE6089B002B66
:104DA8003FF46CAB129B002B7FF794AB1393079BDC
:104DB8000022013B404649461493464BFBF742FC10
:104DC800804689460AF10100FBF7D2FB42464B4672
:104DD800FBF738FC414B0022FBF77EFAA1F1507338
:104DE800CDE910011193FFF7C4BA4FF0020ADDE9CB
:104DF8000A89FFF79BBA079B013307933123FFF713
:104E080038BB079BBB4601330793392337460BF85A
:104E1800013B4646A4E44FF0000A56463BE6994655
:104E28003BE4109D139CB146B0E7149B039A07938B
:104E3800FFF718BB7FF4EDAEDA077FF5EAAEE3E6DD
:104E4800DDF854B0109D139CFFF744BB392BD8D024
:104E5800B9F1000F3FF7DBAEDBE6229B022B3FF7F1
:104E680006AECDF81C808EE5229B022B3FF7FFADE6
:104E7800129BCDF81C80089303E53E4666E74FF089
:104E8800020AFFF753BA024640F2EA21144B1548CA
:104E980002F064FF002620463146666401F06EF891
:104EA800039050B900224FF4D5710D4B0D4802F014
:104EB80055FF0D4B0393FFF7F7B8039B01222364BB
:104EC8004FF0FF33239612930C920893FFF702BB1F
:104ED800C8830008000024400000E03F00001C4098
:104EE8008C820008A08200087C820008B1F90C209E
:104EF800F8B50C461107074643D4636842F40062CC
:104F0800002BA2815BDDA56A002D56D000233E68E8
:104F18003B6093B212F4805255D101233846E169BF
:104F2800A847421C65D0A389A56A5B0705D56368B5
:104F3800C01A236B0BB1E36BC01A0246E169002368
:104F48003846A847411C40D13B68002B3DD01D2B5B
:104F580001D0162B54D10022A38923F40063A38126
:104F68002369C4E90032216B3E6031B304F1400388
:104F7800994202D0384600F02BF9002318462363E3
:104F8800F8BD2669CEB193B29A0718BF00232568E9
:104F980008BF63692660AD1BA3600CE02B46324650
:104FA800D4F824C03846E169E047B0F1000CA5EB1D
:104FB8000C05664416DD002DF0DC0020F8BDE36B1F
:104FC800002BA0DCF9E7206DAFE70022B4F90C3024
:104FD800626023F400632269A381DB042260C2D5E6
:104FE8002065C0E7A3894FF0FF3043F04003A38159
:104FF800F8BD3B68002B96D01D2B06D0162B04D08D
:10500800A38943F04003A381F8BD00203E60F8BDAA
:1050180038B504460D4608B1836B1BB1B5F90C00D1
:1050280030B938BD00F07AF8B5F90C000028F8D08E
:1050380029462046BDE83840FFF758BF014900F02F
:105048003BBB00BF417E00082DE9F04700248246A3
:10505800032504232A48CAE9B845DAF80450CAF8EF
:105068003C00DFF8A090DFF8A080284F284E0AF512
:105078003B70CAF8E8020822EB602146C5E9004403
:10508800C5E904446C66AC60AC6105F15C00FCF7F2
:10509800E3FE204BC5E90759C5E90987EE62DAF84E
:1050A80008500822EB602146C5E90044C5E90444DC
:1050B8006C66AC60AC6105F15C00FCF7CDFE164B8C
:1050C800C5E90759C5E90987EE62DAF80C502146A7
:1050D800EB600822C5E90044C5E904446C66AC608D
:1050E800AC6105F15C00FCF7B7FE0123C5E907597F
:1050F800C5E90A76C5F82480CAF83830BDE8F087D3
:1051080045500008456B0008696B0008A96B00084A
:10511800C96B00080900010012000200836B03B18B
:105128007047FFF791BF00BF704700BF704700BFCF
:10513800F8B50C46234F064600F01CFFBB68C4F5C3
:105148007E615D680F3125F003054B1923F47F63F9
:1051580023F00F03A3F58054B4F5805F07DB00212B
:10516800304601F0A1FCBB682B44984204D030467D
:1051780000F002FF0020F8BD3046614201F094FCC7
:1051880001300DD0104ABB682D1B45F001055D604C
:10519800136830461B1B136000F0EEFE0120F8BDBB
:1051A8000021304601F080FCBA68831A0F2BDEDD3F
:1051B80043F001035360054B03491B68C01A08609C
:1051C800D5E700BFA4050020280A0020AC0900206C
:1051D80000295ED0F8B50C46064600F0CBFE54F820
:1051E800042C784FA4F1080522F001016818D7F8BB
:1051F80008C04368844523F0030300F08780D20782
:10520800436034D454F8082C07F10804AD1A11444B
:10521800AA68A24268D000EB030CDCF804E0D5F8D9
:105228000CC01EF0010FC2F80CC0CCF8082000F02A
:10523800918041F001036B600160B1F5007F31D2CC
:105248000122CB0849098A40796801330A437A6008
:1052580057F8331007EBC302083AC5E9021247F8BA
:105268003350CD603046BDE8F84000F085BEC21826
:105278005268D2070ED4194407F108048368A34280
:1052880070D0C268DA60936041F001036B606950C6
:10529800D3E7704741F00103B1F5007F44F8043CBF
:1052A8000160CDD3B1F5206F4FEA512347D28B0966
:1052B80003F1390003F13802C300F818FB58083825
:1052C800984258D05A6822F003028A4202D99B6851
:1052D8009842F7D1D868C5E9023085603046DD606C
:1052E800BDE8F84000F048BEC2185268D20763D43F
:1052F8000B44D0E90212CA60916043F001026A606F
:105308003046EB50BDE8F84000F036BE0B44D107FC
:1053180007D454F8082CAD1A1344D5E90212CA6010
:10532800916043F001026A60274ABD6012689A42A0
:1053380098D8264B30461968FFF7FAFE92E7142BE7
:105348000AD9542B1FD80B0B03F16F0003F16E021F
:10535800C300B2E7194491E703F15C0003F15B0273
:10536800C300AAE741F00103C7E90455C5E90244AF
:105378006B60695076E70121921001FA02F27968B0
:105388000A437A60A7E7B3F5AA7F06D8CB0B03F1E7
:10539800780003F17702C3008FE740F2545293423A
:1053A80006D88B0C03F17D0003F17C02C30084E76F
:1053B8004FF47E737E2280E741F001036B60016049
:1053C80050E700BFA4050020B0090020580A0020BB
:1053D8009368002B00F0B7802DE9F04FB1F90C303D
:1053E8000C4619078046174683B098B225D523691D
:1053F8001BB310F002033D682DD04FF0000B5E4642
:10540800DFF8B0A2002E00F08B80564533465A468E
:1054180028BF53464046E169D4F824C0E047002835
:1054280040F38780BB6883441B1A361ABB60002B85
:10543800E8D1002003B0BDE8F08F21464046FEF7D2
:10544800F9FC002840F03381B4F90C303D6898B27B
:1054580010F00203D1D110F0010976D14E46002E8A
:105468005AD08205D4F808B040F1B280B3455A4604
:1054780000F2CA8010F4906F00F0C8802368216998
:10548800A3EB010B636903EB430A0AEBDA7A0BF12E
:1054980001034FEA6A0A33445345524684BF9A4689
:1054A8005246430540F1E7801146404600F0DAF9DC
:1054B800002800F0F6805A4621690190FAF790FE1C
:1054C800A289019B22F4906242F08002A28103EB40
:1054D8000B0023613246AAEB0B03B346C4F814A0B1
:1054E800A3602060B24600264946019200F0C6FC3F
:1054F800A368019AA3EB0B012368A16013442360FE
:10550800BB68D144A3EB0A03BB60002B91D0B4F96C
:105518000C0080B2002EA4D1D5E9009608359EE78C
:10552800D5E900B608356DE721464046FFF770FD1E
:1055380078B3B4F90C304FF0FF3043F04003A38147
:1055480003B0BDE8F08F002070471E46BA46994662
:1055580018461F465EB380B34A46D4E904C32068A0
:10556800B24228BF32466045A16803D901EB030B5C
:105578005A4572DC934263DC3A464046E169D4F806
:1055880024C0E047B0F1000BD3DDB9EB0B09CBD059
:105598000120DAF808305F44A3EB0B03A6EB0B06F7
:1055A800CAF80830002B3FF444AF002ED3D16E6800
:1055B8002B460835002EFAD01F6832460A21384695
:1055C80000F012FC002869D00130A0EB0709C3E7FE
:1055D8002068236998421BD86369B34218D86FF0D2
:1055E800004CB44528BFB4469CFBF3FC4A4603FB79
:1055F8000CF34046E169D4F824C0E047B0F1000A52
:1056080097DDA6EB0A067BE7B3463246206869E7D2
:10561800B345DA4628BFB2464946524600F02EFC4A
:10562800A3682268A3EB0A035244A3602260002BFC
:10563800E7D121464046FFF7EBFC0028E1D078E7A8
:1056480039469346019200F019FCA368019A9B1A07
:10565800A36023681344236097E739465A4600F04D
:105668000DFC236821465B4440462360FFF7D0FCCD
:1056780000288AD05DE7404601F026F80346002856
:105688007FF425AF40462169FFF7A2FD0C22B4F94B
:105698000C30C8F8002023F080034CE7721C9146B8
:1056A8005BE70C22B4F90C30C8F8002043E74FF050
:1056B800FF30BFE600FCFF7F2DE9F8434FF00009FB
:1056C8000746884600F53876D6E90154013D10D4DE
:1056D800A389013D012B08D9B4F90E30013304D058
:1056E80021463846C04749EA00096B1C04F16804A2
:1056F800EED13668002EE7D14846BDE8F88300BFF2
:105708000048704728050020014B93F8280170478E
:10571800380400202DE9F0418B890C46990796B092
:1057280008D5012204F14303C4E90432236016B00A
:10573800BDE8F081B4F90E100646002927DB6A4659
:1057480002F034FC002821DB019D4FF4806805F449
:105758007045A5F50055B5FA85F54FF400676D0954
:105768004146304600F07EF8B4F90C30F0B1204ADA
:1057780043F08003F263C4F81480A38120602061A1
:1057880035BB3B43A38116B0BDE8F081A38913F074
:10579800800519D04FF0400830464146002500F0FA
:1057A80061F82F46B4F90C300028E0D19A05BED430
:1057B800012123F0030304F1430243F00203C4E987
:1057C8000421A3812260B2E74FF480682F46C7E71F
:1057D8003046B4F90E1002F0FDFB10B9B4F90C30E4
:1057E800CFE7A38923F0030343F001031BB2C8E703
:1057F8004550000870B50C46B1F90E101546002941
:105808001E4696B014DB6A4602F0D0FB00280FDB78
:1058180001994FF4806301F47041A1F50051B1FA88
:1058280081F14FF40060490931602B6016B070BDFA
:10583800A18911F0800106D000214023084631607B
:105848002B6016B070BD4FF48063084631602B6042
:1058580016B070BD024B0146186800F003B800BFCF
:105868000C0000202DE9F04F01F10B05162D06461E
:1058780083B025D8102900F2B98000F07BFB1025F1
:1058880018224FF0020CB54F3A445368A2F10801B0
:105898008B4200F0B8805A68D96822F003021A4493
:1058A8009C683046E1608C60516803F1080441F05F
:1058B8000101516000F060FB204603B0BDE8F08FA5
:1058C80035F0070500F19280A94200F28F8000F0C0
:1058D80051FBB5F5FC7FC0F094816B0A00F08D8018
:1058E800042B00F26A81AB0903F1390C03F1380487
:1058F8004FEACC00994F384443680838984206D19B
:105908000CE0002980F22781DB68984206D05A68AB
:1059180022F00302511B0F29F3DDA4463C69DFF88E
:1059280040E274457BD0626822F00302531B0F2BC0
:1059380000F37681002BC7E904EE80F26781B2F5A7
:10594800007F80F019810121D30852090B4401FA24
:1059580002F2796857F833000A4307EBC3010839A4
:10596800A060E1607A6047F83340C46001214FEAE3
:10597800AC039940914259D8114206D12CF0030C3E
:10598800490011420CF1040CFAD007EBCC09484647
:105998006446D0F80C80404508D11BE1002B80F20A
:1059A8002081D8F80C80404500F01481D8F80420F4
:1059B80022F00302531B0F2BF0DD08EB050145F025
:1059C8000105C8F804503046D8E90264F460A660BE
:1059D80043F00104C7E904114C60C1E902EE48F83C
:1059E800023000F0C9FA08F1080402E00C23002490
:1059F8003360204603B0BDE8F08F4FF400704FF0DD
:105A0800400C3F2476E7D3689A4208BF0CF1020C99
:105A18007FF441AF3C69DFF848E1744583D1012147
:105A28007A684FEAAC0399409142A5D9BC6863688B
:105A380023F003094D4503D8A9EB05030F2B7ADCA6
:105A4800DFF820B1484BDBF800201B6801322B44FB
:105A580004EB090A00F02E8103F580530F3323F479
:105A68007F6828F00F084146304601F01DF8411CB8
:105A7800024600F0EE80824500F2E9803B4B19684F
:105A880041440846196000F04881DBF80010019392
:105A980001311BBFA2EB0A010918CBF800201960DD
:105AA80012F0070B00F01081CBF108010A44CBF586
:105AB800805190440831A1EB0801C1F30B0A51460B
:105AC8003046009200F0F0FF421CDDE9002300F0B0
